:020000040000FA
:04000000C7EF22F034
:1008000000496E74726F647563652076616C6F72F7
:100810003A200025302E336600494E46004E414EA8
:1008200000696E66006E616E006C660025640000F3
:10083000000E00017B6F000E7A6F30C08CF031C06B
:100840008DF032C08EF033C08FF08FBF2CEF04F0EC
:100850002AEF04F042EF04F0000E7B6F010E7A6F76
:100860008CC001F08DC002F08EC003F08FC004F088
:1008700044EC23F001C08CF002C08DF003C08EF078
:1008800004C08FF0000E0001936F000E926FD3C072
:100890007FF0D4C080F07A517B11D8A452EF04F0DD
:1008A00054EF04F05BEF04F0D7A559EF04F05BEFD1
:1008B00004F075EF04F07A517B11D8A462EF04F0D4
:1008C00064EF04F06AEF04F0000E656F2B0E646FA6
:1008D0006EEF04F0000E656F2D0E646F64C000F1C2
:1008E000924B932B7F07D8A080078CC001F08DC05E
:1008F00002F08EC003F08FC004F040EC1EF0010443
:100900000210D8A486EF04F088EF04F0DFEF04F0C3
:10091000BF0E356EFF0E366E3450376E386A355066
:1009200037263650382238500AE11A0E375CD8A0E4
:100930009CEF04F09FEF04F0010EA0EF04F0000E16
:100940000001666F676B66516711D8B4AAEF04F0B7
:10095000ACEF04F0BAEF04F0000E9225016E010E28
:100960009321026E190E036E080E046E91EC21F0B5
:10097000C6EF04F0000E9225016E010E9321026E67
:10098000210E036E080E046E91EC21F00001FD0EA5
:100990007F27FF0E80232EC011F02FC012F0000E13
:1009A000136E010E146E7FC015F080C016F08FEC30
:1009B0001FF011C02EF012C02FF0EFEF09F08CC025
:1009C00001F08DC002F08EC003F08FC004F040EC47
:1009D0001EF001500210D8A4F0EF04F0F2EF04F082
:1009E00032EF05F0BF0E356EFF0E366E3450376EA7
:1009F000386A355037263650382238500AE11A0EF8
:100A0000375CD8A006EF05F009EF05F0010E0AEFFC
:100A100005F0000E0001686F696B68516911D8B468
:100A200014EF05F016EF05F024EF05F0000E922507
:100A3000016E010E9321026E1D0E036E080E046EF0
:100A400091EC21F0C6EF04F0000E9225016E010E2C
:100A50009321026E250E036E080E046E91EC21F0B8
:100A6000C6EF04F0000E0001946F000E956F800E2B
:100A7000966F3F0E976F000E916F000E906F8CC0B7
:100A800001F08DC002F08EC003F08FC004F0000EA4
:100A9000056E000E066E000E076E000E086EACECC2
:100AA00020F0D8B056EF05F058EF05F0DBEF05F079
:100AB00077EF05F094C001F095C002F096C003F006
:100AC00097C004F0000E056E000E066E200E076E35
:100AD000410E086E47EC0FF001C094F002C095F093
:100AE00003C096F004C097F00001904B912B8CC08E
:100AF0001AF08DC01BF08EC01CF08FC01DF0000ED0
:100B0000056E000E066E200E076E410E086E94C034
:100B100001F095C002F096C003F097C004F047ECD6
:100B20000FF001C01EF002C01FF003C020F004C08F
:100B300021F0BEEC1DF0D8B0A0EF05F0A2EF05F05B
:100B40005AEF05F0C2EF05F094C001F095C002F035
:100B500096C003F097C004F0000E056E000E066EFE
:100B6000200E076E410E086E5CEC11F001C094F08F
:100B700002C095F003C096F004C097F00001900702
:100B8000D8A091078CC01AF08DC01BF08EC01CF04D
:100B90008FC01DF094C01EF095C01FF096C020F0CD
:100BA00097C021F0BEEC1DF0D8A0D9EF05F0DBEF27
:100BB00005F0A4EF05F034C007F0086A32EC21F02C
:100BC00007500001816F81C07EF0670E8119D8A4A3
:100BD000ECEF05F0EEEF05F014EF06F0D551D6116D
:100BE000D8A4F5EF05F0F7EF05F0FBEF05F0000EE8
:100BF000D66F010ED56FD6BF08EF06F0D65106E1CD
:100C0000D505D8B006EF06F008EF06F00EEF06F0B7
:100C1000000E7D6F060E7C6F1DEF06F0D5C07CF0D8
:100C2000D6C07DF01DEF06F0D6BF19EF06F01BEF22
:100C300006F008EF06F00EEF06F0670E8119D8A453
:100C400024EF06F026EF06F055EF06F091AF34EFF3
:100C500006F0FC0E905DFF0E9159D8A032EF06F021
:100C600034EF06F053EF06F0FF0E356EFF0E366ED2
:100C70007CC037F07DC038F03550372636503822EA
:100C80009051375C3850800A396E9151800A39583A
:100C9000D8A04DEF06F04FEF06F053EF06F0660ECA
:100CA0007E6F55EF06F0650E7E6F7CC074F07DC0E0
:100CB00075F0670E8119D8A460EF06F062EF06F0B8
:100CC00072EF06F0660E7E19D8A469EF06F06BEF9E
:100CD00006F074EF06F091BF72EF06F070EF06F0C9
:100CE00074EF06F0744B752B660E7E19D8A47BEF5B
:100CF00006F07DEF06F09DEF06F091BF84EF06F061
:100D000082EF06F090EF06F0000E946F000E956FE4
:100D1000800E966F3F0E976F000E916F000E906FD2
:100D2000670E8119D8B497EF06F099EF06F09DEFA2
:100D300006F09051742791517523000E8B6F000EB1
:100D40008A6F8CC082F08DC083F08EC084F08FC01B
:100D500085F094C060F095C061F096C062F097C0D5
:100D600063F02EEF07F082C001F083C002F084C070
:100D700003F085C004F094C005F095C006F096C05D
:100D800007F097C008F05CEC11F001C01AF002C047
:100D90001BF003C01CF004C01DF049EC19F01AC090
:100DA00086F01BC087F01CC088F01DC089F086C08B
:100DB00001F087C002F088C003F089C004F03BEC6A
:100DC0001DF001C078F002C079F082C01AF083C033
:100DD0001BF084C01CF085C01DF094C005F095C0C8
:100DE00006F096C007F097C008F086C001F087C0F3
:100DF00002F088C003F089C004F047EC0FF001C096
:100E00001EF002C01FF003C020F004C021F082ECED
:100E100022F01AC082F01BC083F01CC084F01DC0F9
:100E200085F094C001F095C002F096C003F097C021
:100E300004F0000E056E000E066E200E076E410EC9
:100E4000086E5CEC11F001C094F002C095F003C094
:100E500096F004C097F000018A4B8B2B74518A5D89
:100E60008B51800A356E7551800A3558D8A03BEFFA
:100E700007F03DEF07F0B3EF06F094C001F095C026
:100E800002F096C003F097C004F0000E056E000E4D
:100E9000066EA00E076E400E086E47EC0FF001C004
:100EA00086F002C087F003C088F004C089F082C0D9
:100EB0001AF083C01BF084C01CF085C01DF086C0F2
:100EC0001EF087C01FF088C020F089C021F0BEEC62
:100ED0001DF0D8B06EEF07F070EF07F07BEF07F072
:100EE000000E0001866F000E876F000E886F000EE7
:100EF000896FA4EF07F082C001F083C002F084C0C4
:100F000003F085C004F086C005F087C006F088C0F5
:100F100007F089C008F0ACEC20F0D8A092EF07F001
:100F200094EF07F0A4EF07F0000178B19AEF07F013
:100F30009CEF07F0A4EF07F0000E866F000E876F9E
:100F4000000E886F000E896F8CC001F08DC002F01A
:100F50008EC003F08FC004F086C005F087C006F095
:100F600088C007F089C008F0E7EC0CF001C082F0FF
:100F700002C083F003C084F004C085F060C094F028
:100F800061C095F062C096F063C097F0650E0001F5
:100F90007E19D8B4CEEF07F0D0EF07F0D6EF07F008
:100FA00090C076F091C077F0DAEF07F0000E776F1F
:100FB000000E766F000E736F000E726F000E716F71
:100FC000000E706F000E8B6F000E8A6FD5EF08F069
:100FD00082C001F083C002F084C003F085C004F039
:100FE00094C005F095C006F096C007F097C008F0D1
:100FF0005CEC11F001C01AF002C01BF003C01CF041
:1010000004C01DF049EC19F01AC086F01BC087F02F
:101010001CC088F01DC089F086C001F087C002F0B6
:1010200088C003F089C004F03BEC1DF001C078F0EB
:1010300002C079F00001D7B920EF08F022EF08F0E4
:101040003FEF08F078517911D8A429EF08F02BEF81
:1010500008F03FEF08F0670E8119D8A432EF08F0CE
:1010600034EF08F03FEF08F077BF3BEF08F039EFBF
:1010700008F03FEF08F0704B712B89EF08F07251C8
:101080007311D8A446EF08F048EF08F072EF08F0AB
:1010900077BF4FEF08F04DEF08F072EF08F0000E49
:1010A0009225D96E010E9321DA6E2E0EDF6E924BD1
:1010B000932B7F07D8A08007000E736F010E726F0D
:1010C00072EF08F0000E9225D96E010E9321DA6EB0
:1010D000300EDF6E924B932B7F07D8A080077007EE
:1010E000D8A0710770517111D8A479EF08F07BEF87
:1010F00008F062EF08F0000E9225D96E010E9321E0
:10110000DA6E7851300FDF6E924B932B7F07D8A0A9
:10111000800782C01AF083C01BF084C01CF085C019
:101120001DF094C005F095C006F096C007F097C07A
:1011300008F086C001F087C002F088C003F089C0C3
:1011400004F047EC0FF001C01EF002C01FF003C016
:1011500020F004C021F082EC22F01AC082F01BC003
:1011600083F01CC084F01DC085F094C001F095C0D0
:1011700002F096C003F097C004F0000E056E000E5A
:10118000066E200E076E410E086E5CEC11F001C079
:1011900094F002C095F003C096F004C097F00001EF
:1011A0007607D8A077078A4B8B2B74518A5D8B51B9
:1011B000800A356E7551800A3558D8B0E2EF08F0D4
:1011C000E4EF08F0F2EF08F093BFF0EF08F093516E
:1011D00009E14B0E925DD8A0F0EF08F0F2EF08F0B5
:1011E000E8EF07F072517311D8A4F9EF08F0FBEFA4
:1011F00008F00CEF09F0D7A900EF09F002EF09F0B1
:101200000CEF09F0000E9225D96E010E9321DA6ED3
:101210002E0EDF6E924B932B000E9225D96E010E8F
:101220009321DA6E000EDF6E650E7E19D8A41BEFD7
:1012300009F01DEF09F0CBEF04F0000E8B6F4F0E9D
:101240008A6F000E8A25D96E010E8B21DA6E000E90
:10125000DF6E000E7B6F000E7A6F91BF34EF09F0E6
:1012600032EF09F03CEF09F0000E7B6F010E7A6F50
:10127000906D911FD8B0912B000E7D6F020E7C6F88
:101280006DEF09F08A07D8A08B07000E8A25D96E6A
:10129000010E8B21DA6E90C001F091C002F0000EB9
:1012A000046E0A0E036E54EC20F00150300FDF6E16
:1012B00090C001F091C002F0000E046E0A0E036EA1
:1012C000F2EC1FF001C090F002C091F000017C0729
:1012D000D8A07D077F07D8A0800790519111D8A48E
:1012E00074EF09F076EF09F042EF09F07DBF83EF6C
:1012F00009F07D5106E17C05D8B081EF09F083EF5C
:1013000009F042EF09F08A07D8A08B077A517B11C8
:10131000D8A48DEF09F08FEF09F095EF09F0000EDA
:101320006B6F2B0E6A6F99EF09F0000E6B6F2D0E2D
:101330006A6F000E8A25D96E010E8B21DA6E6AC0A3
:10134000DFFF7F07D8A080078A07D8A08B07BF0ED2
:10135000356EFF0E366E3450376E386A355037268C
:101360003650382238500AE11A0E375CD8A0BBEF4D
:1013700009F0BEEF09F0010EBFEF09F0000E6E6F2D
:101380006F6B6E516F11D8A4C8EF09F0CAEF09F066
:10139000D0EF09F0000E6D6F650E6C6FD4EF09F0A1
:1013A000000E6D6F450E6C6F000E8A25D96E010E12
:1013B0008B21DA6E6CC0DFFF7F07D8A08007000E9C
:1013C0009225016E010E9321026E000E8A25036E96
:1013D000010E8B21046E91EC21F0CBEF04F0120092
:1013E00042C0D9FF43C0DAFFDECFF6FFDDCFF7FF03
:1013F0000800F550250AD8A400EF0AF002EF0AF021
:10140000CBEF0CF042C0D9FF43C0DAFFDE2A000E5A
:10141000DD22000E0001D46F000ED36FD3C0D7F0D1
:10142000D4C0D8F0D569D669000E536E000E526E46
:1014300065EF0AF00001D78142C0D9FF43C0DAFF4F
:10144000DE2A000EDD2265EF0AF00001D7831CEFD3
:101450000AF00001D7851CEF0AF00001D7871CEFC6
:101460000AF00001D7891CEF0AF0000E536E010E3E
:10147000526E65EF0AF042C0D9FF43C0DAFFDECFFB
:10148000F6FFDDCFF7FF0800F550466E476A47507C
:10149000000AD8B44EEF0AF035EF0AF04650200AA1
:1014A000D8B42DEF0AF0030AD8B431EF0AF0080AD5
:1014B000D8B429EF0AF0060AD8B41AEF0AF01D0AC8
:1014C000D8B425EF0AF035EF0AF052505310D8B4D3
:1014D0006CEF0AF06EEF0AF03BEF0AF00001D7A1C3
:1014E00074EF0AF076EF0AF077EF0AF0D79342C074
:1014F000D9FF43C0DAFFDECFF6FFDDCFF7FF0800EC
:10150000F5502E0AD8A487EF0AF089EF0AF006EF0B
:101510000BF0000ED66F000ED56F42C0D9FF43C04E
:10152000DAFFDE2A000EDD2242C0D9FF43C0DAFF17
:10153000DECFF6FFDDCFF7FF0800F5502A0AD8A46A
:10154000A4EF0AF0A6EF0AF0C3EF0AF042C0D9FFF9
:1015500043C0DAFFDE2A000EDD2244C0D9FF45C0B9
:10156000DAFFDFCF46F0020EDE26DFCF47F0000EB7
:10157000DD2246C0D9FF47C0DAFFDECFD5F0DDCF90
:10158000D6F006EF0BF042C0D9FF43C0DAFFDECF42
:1015900008F0DDCF09F052EC1AF008C0D5F009C010
:1015A000D6F0DAEF0AF042C0D9FF43C0DAFFDE2AF4
:1015B000000EDD22D00E466EFF0E476E42C0D9FFF0
:1015C00043C0DAFFDECFF6FFDDCFF7FF0800F550AE
:1015D000486E496A465048264750492249500AE118
:1015E0000A0E485CD8A0F7EF0AF0FAEF0AF0010EF5
:1015F000FBEF0AF0000E546E556A54505510D8A4F3
:1016000004EF0BF006EF0BF0D3EF0AF042C0D9FF66
:1016100043C0DAFFDECFF6FFDDCFF7FF0800F5505D
:10162000076E086A32EC21F007505C6E5C50D8B44B
:101630001CEF0BF01EEF0BF056EF0BF042C0D9FF82
:1016400043C0DAFFDECF46F0DDCF47F0010E46267D
:10165000000E472246C0F6FF47C0F7FF0800F550CE
:10166000076E086A32EC21F007505D6E5D50D8B409
:101670003CEF0BF03EEF0BF056EF0BF042C0D9FF02
:1016800043C0DAFFDECF46F0DDCF47F0020E46263C
:10169000000E472246C0F6FF47C0F7FF0800F5508E
:1016A000076E086A32EC21F007505E6E42C0D9FF27
:1016B00043C0DAFFDECFF6FFDDCFF7FF0800F550BD
:1016C000640AD8B466EF0BF068EF0BF07AEF0BF01A
:1016D00042C0D9FF43C0DAFFDECFF6FFDDCFF7FF10
:1016E0000800F550690AD8A478EF0BF07AEF0BF0F8
:1016F000BAEF0BF042C0D9FF43C0DAFFDE2A000E7A
:10170000DD2244C0D9FF45C0DAFFDFCF46F0020E2C
:10171000DE26DFCF47F0000EDD2246C0D9FF47C0EE
:10172000DAFFDECF4AF0DDCF4BF0000E4BBEFF0EEE
:101730004C6E4D6E4E6E4F6E506E516E40C01CF032
:1017400041C01DF04AC01EF04BC01FF04CC020F03D
:101750004DC021F04EC022F04FC023F050C024F005
:1017600051C025F029EC13F01CC040F01DC041F021
:10177000E6EF0CF0660E5C18D8A4C1EF0BF0C3EFD7
:101780000BF003EF0CF042C0D9FF43C0DAFFDECF0D
:10179000F6FFDDCFF7FF0800F5CF5FF042C0D9FFBD
:1017A00043C0DAFFDE2A000EDD2244C0D9FF45C067
:1017B000DAFFDFCF46F0040EDE26DFCF47F0000E63
:1017C000DD2246C0D9FF47C0DAFFDECF58F0DECFBA
:1017D00059F0DECF5AF0DECF5BF040C02EF041C0B2
:1017E0002FF058C030F059C031F05AC032F05BC011
:1017F00033F05FC034F018EC04F02EC040F02FC07E
:1018000041F0E6EF0CF05C0E016E000E026E290E48
:10181000036E080E046E000E066E020E056EBFEC1F
:101820001EF001500210D8A418EF0CF01AEF0CF0C3
:1018300095EF0CF042C0D9FF43C0DAFFDECF46F08F
:10184000DDCF47F0010E4626000E472246C0F6FFC8
:1018500047C0F7FF0800F5CF5FF0BF0E466EFF0EE2
:10186000476E42C0D9FF43C0DAFFDECFF6FFDDCFBF
:10187000F7FF0800F550486E496A46504826475021
:10188000492249500AE11A0E485CD8A04AEF0CF0F0
:101890004DEF0CF0010E4EEF0CF0000E566E576A35
:1018A00056505710D8B457EF0CF059EF0CF073EFB7
:1018B0000CF044C0D9FF45C0DAFFDFCF46F0040E7C
:1018C000DE26DFCF47F0000EDD2246C0D9FF47C03D
:1018D000DAFFDECF58F0DECF59F0DECF5AF0DECFA0
:1018E0005BF08BEF0CF044C0D9FF45C0DAFFDFCFCF
:1018F00046F0040EDE26DFCF47F0000EDD2246C0A4
:10190000D9FF47C0DAFFDECF58F0DECF59F0DECF87
:101910005AF0DECF5BF0020E42C0D9FF43C0DAFFBF
:10192000DE26000EDD22EDEF0BF042C0D9FF43C0F2
:10193000DAFFDECFF6FFDDCFF7FF0800F550250A0E
:10194000D8A4A5EF0CF0A7EF0CF0BEEF0CF042C04E
:10195000D9FF43C0DAFFDE2A000EDD22000E026E40
:10196000250E016E40C003F041C004F02AEC1FF0C8
:10197000000E416E010E406EE6EF0CF042C0D9FF42
:1019800043C0DAFFDE2A000EDD22000E416E000E9B
:10199000406EE6EF0CF042C0D9FF43C0DAFFDECF65
:1019A000F6FFDDCFF7FF0800F550016E026A40C078
:1019B00003F041C004F02AEC1FF042C0D9FF43C03D
:1019C000DAFFDE2A000EDD22B8EF0CF01200045020
:1019D000800B0D6E045004240F6E03AEF2EF0CF07A
:1019E000F4EF0CF0F5EF0CF00F800F50D8B4FBEFD4
:1019F0000CF0FDEF0CF012EF0DF00F28D8A403EF60
:101A00000DF005EF0DF00DEF0DF0000E016E000E64
:101A1000026E000E036E000E046E038E000E046E46
:101A20001AEF0DF0000E016E000E026E000E036E36
:101A3000000E046E0850800B0E6E0D500E18D8B4B8
:101A400024EF0DF026EF0DF027EF0DF00D8C085070
:101A500008240E6E07AE2FEF0DF031EF0DF032EFD0
:101A60000DF00E800E50D8B438EF0DF03AEF0DF0B7
:101A70004FEF0DF00E28D8A440EF0DF042EF0DF01F
:101A80004AEF0DF0000E056E000E066E000E076E9A
:101A9000000E086E078E000E086E57EF0DF0000E58
:101AA000056E000E066E000E076E000E086E0F50DB
:101AB0000E5CD8B05EEF0DF060EF0DF087EF0DF02B
:101AC0000DAC65EF0DF067EF0DF069EF0DF0800ED6
:101AD0000D1A0FC010F00EC00FF010C00EF001C0B4
:101AE00010F005C001F010C005F002C010F006C0F3
:101AF00002F010C006F003C010F007C003F010C0E1
:101B000007F004C010F008C004F010C008F0000E88
:101B1000106E0F500EC009F00A6A095E000E0A5AD4
:101B20000ABE9CEF0DF00A5009E11A0E095CD8A01C
:101B30009CEF0DF09EEF0DF0D5EF0DF0015002106F
:101B400003100410D8A4A7EF0DF0AAEF0DF0010EBA
:101B5000ABEF0DF0000E106E000E016E000E026E67
:101B6000000E036E000E046E0EC00FF0DEEF0DF0DF
:101B700010A0BDEF0DF0BFEF0DF0C5EF0DF0D89048
:101B800010300109106EC7EF0DF0D890103201A08F
:101B9000CCEF0DF0CEEF0DF0CFEF0DF0108E043442
:101BA00004320332023201320F2A0E500F5CD8A0E9
:101BB000DCEF0DF0DEEF0DF0B8EF0DF00DBCE3EF54
:101BC0000DF0E5EF0DF025EF0EF00F50D8A4EBEF80
:101BD0000DF0EDEF0DF0F7EF0DF0000E016E000EC1
:101BE000026E000E036E000E046E46EF0FF00550FD
:101BF000012606500222075003220850042204A0A6
:101C000004EF0EF006EF0EF0B2EF0EF010A00BEFA7
:101C10000EF00DEF0EF013EF0EF0D890103001091A
:101C2000106E15EF0EF0D890103201A01AEF0EF0E2
:101C30001CEF0EF01DEF0EF0108E04340432033250
:101C4000023201320F2AB2EF0EF00550015C06504D
:101C50000258075003580450800A096E0850800A41
:101C60000958D8B036EF0EF038EF0EF063EF0EF0F3
:101C70000150055C096E025006580A6E0350075861
:101C80000B6E045008580C6EFF0E0924016EFF0EF7
:101C90000A20026EFF0E0B20036EFF0E0C20046E56
:101CA000800E0D1A106C1050D8A459EF0EF05BEF97
:101CB0000EF06BEF0EF0010E0126000E0222032241
:101CC00004226BEF0EF00550015E0650025A0750D9
:101CD000035A0850045A0150021003100410D8A4EB
:101CE00074EF0EF076EF0EF0ABEF0EF01050D8A4BC
:101CF0007CEF0EF07EEF0EF0ABEF0EF0000E016EFB
:101D0000000E026E000E036E000E046E46EF0FF022
:101D1000D890013602360336043610AE92EF0EF03C
:101D200094EF0EF095EF0EF0018010A09AEF0EF0F8
:101D30009CEF0EF0A0EF0EF0D8801036A2EF0EF060
:101D4000D89010360F50D8B4A8EF0EF0AAEF0EF0CE
:101D5000ABEF0EF00F0603AEB0EF0EF0B2EF0EF0E9
:101D600088EF0EF0000E0E6E10AEB9EF0EF0BBEF66
:101D70000EF0D3EF0EF010C009F07F0E0916D8B4A4
:101D8000C4EF0EF0C6EF0EF0CAEF0EF0010E0E6EAD
:101D9000D3EF0EF001A0CFEF0EF0D1EF0EF0D3EFA6
:101DA0000EF0C6EF0EF00E50D8B4D9EF0EF0DBEF08
:101DB0000EF006EF0FF0010E0126000E02220322A4
:101DC000042204A0E6EF0EF0E8EF0EF006EF0FF0AD
:101DD00001C009F002C00AF003C00BF004C00CF00F
:101DE0000C340C320B320A32093209C001F00AC03D
:101DF00002F00BC003F00CC004F00F28D8B403EFBE
:101E00000FF005EF0FF006EF0FF00F2A0F28D8B4F0
:101E10000CEF0FF00EEF0FF016EF0FF00F50D8A4ED
:101E200014EF0FF016EF0FF028EF0FF0000E016E19
:101E3000000E026E000E036E000E046E0F50D8A44A
:101E400024EF0FF026EF0FF028EF0FF0000E0D6ECD
:101E50000FA02DEF0FF02FEF0FF032EF0FF0038EEA
:101E600033EF0FF0039ED8900F30046E0DAE3BEFB2
:101E70000FF03DEF0FF03EEF0FF0048E01C001F0C8
:101E800002C002F003C003F004C004F012000450CA
:101E9000800B0D6E04500424136E03AE52EF0FF04E
:101EA00054EF0FF055EF0FF013801350D8B45BEFE1
:101EB0000FF05DEF0FF070EF0FF01328D8A463EF71
:101EC0000FF065EF0FF06DEF0FF0000E016E000EDA
:101ED000026E000E036E000E046E038E78EF0FF09C
:101EE000000E016E000E026E000E036E000E046EF8
:101EF0000850800B0D1A08500824126E07AE83EFAD
:101F00000FF085EF0FF086EF0FF012801250D8B46B
:101F10008CEF0FF08EEF0FF0A1EF0FF01228D8A486
:101F200094EF0FF096EF0FF09EEF0FF0000E056E9E
:101F3000000E066E000E076E000E086E078EA9EFEB
:101F40000FF0000E056E000E066E000E076E000EFE
:101F5000086E1250D8B4AFEF0FF0B1EF0FF0B9EF39
:101F60000FF01350D8A4B7EF0FF0B9EF0FF0C3EF95
:101F70000FF0000E016E000E026E000E036E000EDA
:101F8000046E5BEF11F007500102F3CF18F0F4CFAD
:101F900019F018500E6E0F6A106A116A1950146EFB
:101FA000156A166A176A06500202F3CF18F0F4CFCA
:101FB00019F018500E26000E0F221022112219506F
:101FC0001426000E15221622172205500302F3CF05
:101FD00018F0F4CF19F018500E26000E0F22102220
:101FE000112219501426000E15221622172210C095
:101FF00011F00FC010F00EC00FF00E6A0550020273
:10200000F3CF18F0F4CF19F018500E2619500F2204
:10201000000E1022000E112206500102F3CF18F01C
:10202000F4CF19F018500E2619500F22000E10226E
:10203000000E112210C011F00FC010F00EC00FF0F2
:102040000E6A05500102F3CF18F0F4CF19F01850C2
:102050000E2619500F22000E1022000E11220750DA
:102060000202F3CF18F0F4CF19F0185014261950CB
:102070001522000E1622000E172206500302F3CF7F
:1020800018F0F4CF19F01850142619501522000E2C
:102090001622000E172207500302F3CF18F0F4CFD8
:1020A00019F01850096E19500A6E0B6A0C6A0BC0B1
:1020B0000CF00AC00BF009C00AF0096A0950142696
:1020C0000A5015220B5016220C5017220EC009F090
:1020D0000FC00AF010C00BF011C00CF0190E76EF13
:1020E00010F0D8900C320B320A320932E82E71EF20
:1020F00010F0095014260A5015220B5016220C50CD
:10210000172210C011F00FC010F00EC00FF00E6AB1
:10211000125013C009F00A6A0926000E0A22820E24
:102120000924186EFF0E0A20196EACEF10F0D8903B
:10213000143615361636173611AEA1EF10F0A3EF90
:1021400010F0A4EF10F01480D8900E360F36103631
:1021500011361806D8A0190616AEB1EF10F0B3EF7D
:1021600010F097EF10F0000E126E11AEBAEF10F0F3
:10217000BCEF10F0E0EF10F0FF0E0E14096EFF0E32
:102180000F140A6EFF0E10140B6E7F0E11140C6EDE
:1021900009500A100B100C10D8B4D1EF10F0D3EF87
:1021A00010F0D7EF10F0010E126EE0EF10F014A057
:1021B000DCEF10F0DEEF10F0E0EF10F0D3EF10F0F6
:1021C0001250D8B4E6EF10F0E8EF10F00CEF11F079
:1021D000010E1426000E15221622172217A0F3EF67
:1021E00010F0F5EF10F00CEF11F014C009F015C06D
:1021F0000AF016C00BF017C00CF00C340C320B3286
:102200000A32093209C014F00AC015F00BC016F0EA
:102210000CC017F0184A192A19BE17EF11F01950FF
:1022200008E11828D8A017EF11F019EF11F023EFEB
:1022300011F0000E146E000E156E800E166E7F0EDD
:10224000176E51EF11F019BE30EF11F0195006E181
:102250001804D8B02EEF11F030EF11F03CEF11F070
:10226000000E146E000E156E000E166E000E176E28
:10227000000E0D6E51EF11F018C013F0FF0E141682
:10228000FF0E15167F0E1616000E171613A04BEF35
:1022900011F04DEF11F04EEF11F0168ED890133073
:1022A000176E0D50171214C001F015C002F016C0C1
:1022B00003F017C004F012000450800B116E04509C
:1022C0000424186E03AE67EF11F069EF11F06AEFA6
:1022D00011F018801850D8B470EF11F072EF11F0AF
:1022E00087EF11F01828D8A478EF11F07AEF11F0E9
:1022F00082EF11F0000E016E000E026E000E036EF2
:10230000000E046E038E000E046E8FEF11F0000EAF
:10231000016E000E026E000E036E000E046E085079
:10232000800B111A08500824196E07AE9AEF11F0AD
:102330009CEF11F09DEF11F019801950D8B4A3EF64
:1023400011F0A5EF11F0BAEF11F01928D8A4ABEFF6
:1023500011F0ADEF11F0B5EF11F0000E056E000EAB
:10236000066E000E076E000E086E078E000E086ED9
:10237000C2EF11F0000E056E000E066E000E076E25
:10238000000E086E0550061007100810D8A4CBEFF9
:1023900011F0CDEF11F0E5EF11F0000E016E000E1F
:1023A000026E000E036E000E046E800E03127F0E8E
:1023B00004121150041201C001F002C002F003C067
:1023C00003F004C004F028EF13F01850D8A4EBEF8A
:1023D00011F0EDEF11F0F7EF11F0000E016E000EAD
:1023E000026E000E036E000E046E28EF13F01950FB
:1023F00018C009F00A6A095E000E0A5A7F0E092405
:10240000126E000E0A20136E01C00DF002C00EF015
:1024100003C00FF004C010F0000E016E000E026E3B
:10242000000E036E000E046E000E146E000E156E8C
:10243000000E166E000E176E000E196E58EF12F099
:102440001950D8B426EF12F028EF12F03FEF12F037
:10245000D8900D360E360F361036D890013602362B
:102460000336043617AE37EF12F039EF12F03AEFB9
:1024700012F00180D89014361536163617360550EE
:102480000D5C06500E5807500F5808501058D8A031
:102490004CEF12F04EEF12F057EF12F0178C055080
:1024A0000D5E06500E5A07500F5A0850105A192A3E
:1024B000190E19645EEF12F060EF12F020EF12F0C7
:1024C0000D500E100F101010D8B469EF12F06BEF12
:1024D00012F083EF12F0148083EF12F0D8900136DF
:1024E00002360336043617AE78EF12F07AEF12F0A8
:1024F0007BEF12F00180D890143615361636173659
:102500001206D8A0130603AE88EF12F08AEF12F07D
:102510006EEF12F0000E196E17AE91EF12F093EFFE
:1025200012F0B7EF12F0FF0E1414096EFF0E15141F
:102530000A6EFF0E16140B6E7F0E17140C6E0950E8
:102540000A100B100C10D8B4A8EF12F0AAEF12F07A
:10255000AEEF12F0010E196EB7EF12F001A0B3EF5B
:1025600012F0B5EF12F0B7EF12F0AAEF12F0195017
:10257000D8B4BDEF12F0BFEF12F0E3EF12F0010E8E
:102580000126000E02220322042204A0CAEF12F048
:10259000CCEF12F0E3EF12F001C009F002C00AF034
:1025A00003C00BF004C00CF00C340C320B320A32B6
:1025B000093209C001F00AC002F00BC003F00CC0E0
:1025C00004F0124A132A13BEEEEF12F0135008E182
:1025D0001228D8A0EEEF12F0F0EF12F0FBEF12F09D
:1025E000000E136E1268000E016E000E026E000ED9
:1025F000036E000E046E13BE08EF13F0135006E1D5
:102600001204D8B006EF13F008EF13F016EF13F032
:10261000000E136E000E126E000E016E000E026EA2
:10262000000E036E000E046E000E116E12C018F044
:1026300018A01DEF13F01FEF13F022EF13F0038E1D
:1026400023EF13F0039ED8901830046ED9EF11F0E9
:1026500012001EC036F01FC037F020C038F021C075
:1026600039F022C03AF023C03BF024C03CF025C032
:102670003DF03DBE3EEF13F041EF13F0010E42EF8F
:1026800013F0000E346E356A34503510D8B44BEF69
:1026900013F04DEF13F05DEF13F03D1E3C1E3B1E9B
:1026A0003A1E391E381E371E366C000E372238226D
:1026B00039223A223B223C223D220001D6BF63EF61
:1026C00013F065EF13F066EF13F0D793D6BF73EFF7
:1026D00013F0D65106E1D505D8B071EF13F073EFC2
:1026E00013F079EF13F0000E316E010E306E7DEFB6
:1026F00013F0D5C030F0D6C031F0D3C032F0D4C022
:1027000033F034503510D8A488EF13F08AEF13F06B
:1027100091EF13F0D7A58FEF13F091EF13F094EF33
:1027200013F03206D8A03306000E3F6E4F0E3E6EF9
:10273000000E01014F6F19EF14F03E06D8A03F06BE
:10274000000E3E24D96E010E3F20DA6E36C001F035
:1027500037C002F038C003F039C004F03AC005F0C9
:102760003BC006F03CC007F03DC008F00A0E096E01
:10277000000E0A6E000E0B6E000E0C6E000E0D6E3B
:10278000000E0E6E000E0F6E000E106EDEEC1BF0D3
:1027900001C026F002C027F003C028F004C029F0D1
:1027A00005C02AF006C02BF007C02CF008C02DF0A1
:1027B00026C013F028C014F0E8EC22F01350300FBC
:1027C000DF6E3006D8A031063206D8A0330636C0F8
:1027D00001F037C002F038C003F039C004F03AC04D
:1027E00005F03BC006F03CC007F03DC008F00A0E03
:1027F000096E000E0A6E000E0B6E000E0C6E000EBF
:102800000D6E000E0E6E000E0F6E000E106E1AECA6
:102810001BF001C036F002C037F003C038F004C02E
:1028200039F005C03AF006C03BF007C03CF008C0E4
:102830003DF03FBE24EF14F03F5008E13E04D8A025
:1028400024EF14F026EF14F057EF14F03650371041
:10285000381039103A103B103C103D10D8A433EF1B
:1028600014F035EF14F09DEF13F031BE42EF14F089
:10287000315006E13004D8B040EF14F042EF14F0CC
:102880009DEF13F033BE4DEF14F0335008E13204E6
:10289000D8A04DEF14F04FEF14F057EF14F00001F3
:1028A000D7B355EF14F057EF14F09DEF13F03450F9
:1028B0003510D8A45EEF14F060EF14F068EF14F058
:1028C0000001D7A566EF14F068EF14F086EF14F05E
:1028D0003E06D8A03F0634503510D8A472EF14F04D
:1028E00074EF14F07AEF14F0000E2F6E2B0E2E6E94
:1028F0007EEF14F0000E2F6E2D0E2E6E000E3E2475
:10290000D96E010E3F20DA6E2EC0DFFF1CC011F021
:102910001DC012F0000E3E24136E010E3F20146EF7
:1029200032C015F033C016F08FEC1FF011C01CF050
:1029300012C01DF01200939A9468818A82A0A3EFBE
:1029400014F0A5EF14F0E8EF14F00001DD51DE11F2
:10295000D8A4ADEF14F0AFEF14F0E8EF14F0000ED0
:10296000DE6F010EDD6F030E0A6E8A0E096E560EC3
:10297000E82EFED7092EFCD70A2EFAD782B0C3EF75
:1029800014F0C5EF14F0CEEF15F00001DD05DE11F7
:10299000D8A4CDEF14F0CFEF14F0CEEF15F0000E69
:1029A000DC6F000EDB6F000EDE6F000EDD6FC2EC21
:1029B00023F0000E0001DA6F000ED96F000EE06FF9
:1029C000000EDF6FC2EC23F0819A8290CEEF15F0FB
:1029D00082A2EDEF14F0EFEF14F027EF15F00001F5
:1029E000DD51DE11D8A4F7EF14F0F9EF14F027EF62
:1029F00015F0000EDE6F010EDD6F030E0A6E8A0EFB
:102A0000096E560EE82EFED7092EFCD70A2EFAD7ED
:102A100082B20DEF15F00FEF15F0CEEF15F00001BB
:102A2000DD05DE11D8A417EF15F019EF15F0CEEF84
:102A300015F0000EDC6F000EDB6F819A000EDA6F6E
:102A4000000ED96FDF4BE02B8292CEEF15F082A4FF
:102A50002CEF15F02EEF15F087EF15F00001DD518A
:102A6000DE11D8A436EF15F038EF15F087EF15F02A
:102A7000000EDE6F010EDD6F030E0A6E8A0E096E08
:102A8000560EE82EFED7092EFCD70A2EFAD782B4AE
:102A90004CEF15F04EEF15F0CEEF15F00001DD050F
:102AA000DE11D8A456EF15F058EF15F0CEEF15F063
:102AB000000EDC6F000EDB6F000EDE6F000EDD6FB0
:102AC000819AC2EC23F00001E705E811D8A46BEF6E
:102AD00015F06DEF15F079EF15F0000EE86F020EAE
:102AE000E76F000EE06F000EDF6FC2EC23F07DEFAA
:102AF00015F0000EE86F010EE76F8294000E0001E2
:102B0000E06F000EDF6FC2EC23F0CEEF15F082A86D
:102B10008CEF15F08EEF15F0CAEF15F00001DD0512
:102B2000DE11D8A496EF15F098EF15F0CAEF15F066
:102B3000000EDE6F010EDD6F030E0A6E8A0E096E47
:102B4000560EE82EFED7092EFCD70A2EFAD782B2EF
:102B5000ACEF15F0AEEF15F0CEEF15F00001DD058E
:102B6000DE11D8A4B6EF15F0B8EF15F0CEEF15F0E2
:102B7000000EDC6F000EDB6F000EDE6F000EDD6FEF
:102B8000819AD60E00D000D0E82EFCD700D08298D3
:102B9000CEEF15F0819A938A000E946E819A938AF3
:102BA000000E946E120093989468818882A0DBEFE7
:102BB00015F0DDEF15F01FEF16F00001DD51DE110D
:102BC000D8A4E5EF15F0E7EF15F01FEF16F0000EB3
:102BD000DE6F010EDD6F030E026E8A0E016E560E61
:102BE000E82EFED7012EFCD7022EFAD782B0FBEFDB
:102BF00015F0FDEF15F0FAEF16F00001DD05DE111E
:102C0000D8A405EF16F007EF16F0FAEF16F0000E55
:102C1000DC6F000EDB6F000EDE6F000EDD6FDF4B32
:102C2000E02B8198000EDA6F010ED96FD60E00D01E
:102C300000D0E82EFCD700D08290FAEF16F082A2E6
:102C400024EF16F026EF16F068EF16F00001DD51C4
:102C5000DE11D8A42EEF16F030EF16F068EF16F064
:102C6000000EDE6F010EDD6F030E026E8A0E016E26
:102C7000560EE82EFED7012EFCD7022EFAD782B2CE
:102C800044EF16F046EF16F0FAEF16F00001DD05FE
:102C9000DE11D8A44EEF16F050EF16F0FAEF16F052
:102CA000000EDC6F000EDB6F000EDE6F000EDD6FBE
:102CB000DF4BE02B8198000EDA6F020ED96FD60E33
:102CC00000D000D0E82EFCD700D08292FAEF16F0A8
:102CD00082A46DEF16F06FEF16F0B1EF16F0000161
:102CE000DD51DE11D8A477EF16F079EF16F0B1EFD1
:102CF00016F0000EDE6F010EDD6F030E026E8A0EFF
:102D0000016E560EE82EFED7012EFCD7022EFAD702
:102D100082B48DEF16F08FEF16F0FAEF16F0000187
:102D2000DD05DE11D8A497EF16F099EF16F0FAEF53
:102D300016F0000EDC6F000EDB6F000EDE6F000E73
:102D4000DD6FDF4BE02B8198000EDA6F030ED96F39
:102D5000D60E00D000D0E82EFCD700D08294FAEF37
:102D600016F082A8B6EF16F0B8EF16F0F6EF16F0F0
:102D70000001DD05DE11D8A4C0EF16F0C2EF16F099
:102D8000F6EF16F0000EDE6F010EDD6F030E026E21
:102D90008A0E016E560EE82EFED7012EFCD7022EAB
:102DA000FAD782B2D6EF16F0D8EF16F0FAEF16F097
:102DB0000001DD05DE11D8A4E0EF16F0E2EF16F019
:102DC000FAEF16F0000EDC6F000EDB6F000EDE6F08
:102DD000000EDD6FDF4BE02B8198D60E00D000D0C7
:102DE000E82EFCD700D08298FAEF16F081989388ED
:102DF000000E946E81989388000E946E000E000170
:102E0000DE6F000EDD6F120093949468818482A0BF
:102E10000CEF17F00EEF17F04AEF17F00001DD513D
:102E2000DE11D8A416EF17F018EF17F04AEF17F0DD
:102E3000000EDE6F010EDD6F030E0A6E8A0E096E44
:102E4000560EE82EFED7092EFCD70A2EFAD782B0EE
:102E50002CEF17F02EEF17F023EF18F00001DD052F
:102E6000DE11D8A436EF17F038EF17F023EF18F083
:102E7000000EDC6F000EDB6F000EDE6F000EDD6FEC
:102E8000DF4BE02B8192000EDA6F040ED96F829037
:102E900023EF18F082A24FEF17F051EF17F08DEFEC
:102EA00017F00001DD51DE11D8A459EF17F05BEFE8
:102EB00017F08DEF17F0000EDE6F010EDD6F030EC1
:102EC0000A6E8A0E096E560EE82EFED7092EFCD722
:102ED0000A2EFAD782B26FEF17F071EF17F023EFD7
:102EE00018F00001DD05DE11D8A479EF17F07BEFB3
:102EF00017F023EF18F0000EDC6F000EDB6F000EF2
:102F0000DE6F000EDD6FDF4BE02B8192000EDA6F7B
:102F1000050ED96F829223EF18F082A492EF17F07A
:102F200094EF17F0D0EF17F00001DD51DE11D8A4B7
:102F30009CEF17F09EEF17F0D0EF17F0000EDE6F4A
:102F4000010EDD6F030E0A6E8A0E096E560EE82E14
:102F5000FED7092EFCD70A2EFAD782B4B2EF17F0AB
:102F6000B4EF17F023EF18F00001DD05DE11D8A44F
:102F7000BCEF17F0BEEF17F023EF18F0000EDC6F78
:102F8000000EDB6FDF4BE02B000EDE6F000EDD6FFF
:102F90008192000EDA6F060ED96F829423EF18F03B
:102FA00082A8D5EF17F0D7EF17F01AEF18F000014D
:102FB000DD51DE11D8A4DFEF17F0E1EF17F01AEFC3
:102FC00018F0000EDE6F010EDD6FDF4BE02B030EFD
:102FD0000A6E8A0E096E560EE82EFED7092EFCD711
:102FE0000A2EFAD782B2F7EF17F0F9EF17F023EFB6
:102FF00018F00001DD05DE11D8A401EF18F003EF91
:1030000018F023EF18F0000EDC6F000EDB6F000EDF
:10301000E06F010EDF6FC2EC23F0000E0001DE6FE7
:10302000000EDD6F8192030EDA6FE80ED96F829881
:1030300023EF18F081949384000E946E000E00012B
:10304000DE6F000EDD6F81949384000E946E12008B
:1030500093929468818282A030EF18F032EF18F0DA
:103060006EEF18F00001DD51DE11D8A43AEF18F030
:103070003CEF18F06EEF18F0000EDE6F010EDD6F02
:10308000000EDC6F000EDB6F030E026E8A0E016E07
:10309000560EE82EFED7012EFCD7022EFAD782B0AC
:1030A00054EF18F056EF18F044EF19F00001DD0569
:1030B000DE11D8A45EEF18F060EF18F044EF19F0BD
:1030C000000EDE6F000EDD6F8192000EDA6F070ECC
:1030D000D96FDF4BE02B829044EF19F082A273EF9F
:1030E00018F075EF18F0B1EF18F00001DD51DE11A6
:1030F000D8A47DEF18F07FEF18F0B1EF18F0000EB4
:10310000DE6F010EDD6F030E026E8A0E016E560E2B
:10311000E82EFED7012EFCD7022EFAD782B293EF0B
:1031200018F095EF18F044EF19F00001DD05DE11FD
:10313000D8A49DEF18F09FEF18F044EF19F0000E9F
:10314000DE6F000EDD6F000EDC6F000EDB6F819214
:10315000000EDA6F080ED96FDF4BE02B829244EF3E
:1031600019F082A4B6EF18F0B8EF18F0F4EF18F0E9
:103170000001DD51DE11D8A4C0EF18F0C2EF18F045
:10318000F4EF18F0000EDE6F010EDD6F030E026E1D
:103190008A0E016E560EE82EFED7012EFCD7022EA7
:1031A000FAD782B4D6EF18F0D8EF18F044EF19F040
:1031B0000001DD05DE11D8A4E0EF18F0E2EF18F011
:1031C00044EF19F0000EDE6F000EDD6F000EDC6FB5
:1031D000000EDB6F8192000EDA6F090ED96FDF4BA4
:1031E000E02B829444EF19F082A8F9EF18F0FBEF7E
:1031F00018F03BEF19F00001DD51DE11D8A403EF08
:1032000019F005EF19F03BEF19F0000EDE6F010E1B
:10321000DD6F030E026E8A0E016E560EE82EFED78B
:10322000012EFCD7022EFAD782B219EF19F01BEF4C
:1032300019F044EF19F00001DD05DE11D8A423EFE9
:1032400019F025EF19F044EF19F0000EDC6F000EB5
:10325000DB6F000EDE6F000EDD6F8192000EDA6F05
:10326000010ED96FDF4BE02B000EDC6F010EDB6F20
:10327000829844EF19F081929382000E946E000EB2
:103280000001DE6F000EDD6F81929382000E946E5E
:103290001200C9C02AF0CAC02BF0CBC02CF0CCC0A1
:1032A0002DF01AC02AF01BC02BF01CC02CF01DC042
:1032B0002DF0810E1E6EFF0E1F6E2AC020F02BC057
:1032C00021F02CC022F02DC023F0180E6DEF19F064
:1032D000D8902332223221322032E82E68EF19F0C2
:1032E00020501E24286E000E1F20296E29BE82EF5A
:1032F00019F0295009E1170E285CD8A082EF19F0C7
:1033000084EF19F08EEF19F01AC01AF01BC01BF0F1
:103310001CC01CF01DC01DF051EF1AF029BE93EF28
:1033200019F095EF19F005EF1AF028C01EF0FF0E06
:103330001F6EFF0E206E7F0E216E000E226E1E6627
:10334000A4EF19F0ACEF19F02234223221322032EE
:103350001F321E2E9FEF19F01FC024F020C025F051
:1033600021C026F022C027F024502A141E6E2550BA
:103370002B141F6E26502C14206E27502D14216EF6
:103380001E501F1020102110D8A4C9EF19F0CBEF48
:1033900019F0CDEF19F084EF19F02AC01EF02BC000
:1033A0001FF02CC020F02DC021F0200EDDEF19F011
:1033B000D890213220321F321E32E82ED8EF19F079
:1033C0001E501F1020102110D8B4E9EF19F0EBEFB8
:1033D00019F0F3EF19F024502A2625502B222650FD
:1033E0002C2227502D22241C1E6E251C1F6E261CED
:1033F000206E271C216E1E502A161F502B1620509F
:103400002C1621502D1649EF1AF02AC01EF02BC0A1
:103410001FF02CC020F02DC021F0200E15EF1AF067
:10342000D890213220321F321E32E82E10EF1AF0CF
:103430001E501F1020102110D8A421EF1AF023EFE6
:103440001AF02DEF1AF0000E2A6E000E2B6E000EF1
:103450002C6E000E2D6E49EF1AF0D8902A341E6E95
:103460002B341F6E2C34206E2D34216E1E501F10F5
:1034700020102110D8B43FEF1AF041EF1AF049EFB5
:103480001AF0000E2A6E000E2B6E800E2C6EBF0EF0
:103490002D6E2AC01AF02BC01BF02CC01CF02DC0C2
:1034A0001DF01200000E166E000E156E000E0F6E4F
:1034B000000E0E6E5EEF1AF0084A092A010E146E15
:1034C00008C0F6FF09C0F7FF0800F550200AD8B47D
:1034D0006CEF1AF06EEF1AF08BEF1AF0F70E0A6E1F
:1034E000FF0E0B6E08C0F6FF09C0F7FF0800F5508D
:1034F0000C6E0D6A0A500C260B500D220D5009E17E
:10350000050E0C5CD8A087EF1AF089EF1AF08BEF4C
:103510001AF0000E146E14C010F0116A1050111041
:10352000D8A495EF1AF097EF1AF05CEF1AF0A1EF1C
:103530001AF0000E0F6E010E0E6E084A092AD6EF21
:103540001AF008C0F6FF09C0F7FF0800F5500A6E30
:103550000B6A0B50000AD8B4B0EF1AF0D6EF1AF08D
:103560000A502B0AD8B49DEF1AF0060AD8B499EF86
:103570001AF0D6EF1AF015C001F016C002F0000ED6
:10358000046E0A0E036EAFEC23F008C0F6FF09C00C
:10359000F7FF0800F550015E000E025A300E0124BC
:1035A000156E000E0220166E9DEF1AF0D00E0A6EF8
:1035B000FF0E0B6E08C0F6FF09C0F7FF0800F550BC
:1035C0000C6E0D6A0A500C260B500D220D500AE1AC
:1035D0000A0E0C5CD8A0EFEF1AF0F2EF1AF0010E11
:1035E000F3EF1AF0000E126E136A12501310D8A4E3
:1035F000FCEF1AF0FEEF1AF0BBEF1AF00E500F10AE
:10360000D8A405EF1BF007EF1BF015EF1BF015C05A
:103610000AF016C00BF00A1E0B1E0A4A0B2A0AC03B
:1036200008F00BC009F019EF1BF015C008F016C028
:1036300009F01200000E126E10BE23EF1BF021EFF6
:103640001BF035EF1BF0101E0F1E0E1E0D1E0C1E64
:103650000B1E0A1E096C000E0A220B220C220D22E0
:103660000E220F221022010E126E08BE3CEF1BF03C
:103670003AEF1BF04EEF1BF0081E071E061E051E3C
:10368000041E031E021E016C000E022203220422ED
:103690000522062207220822010E121A20EE13F03C
:1036A000070EDE6AE806FDE209500A100B100C1046
:1036B0000D100E100F101010D8B461EF1BF063EF57
:1036C0001BF0B5EF1BF0010E116E71EF1BF0D890DF
:1036D00009360A360B360C360D360E360F361036D6
:1036E000112A10AE76EF1BF078EF1BF067EF1BF09E
:1036F000D89013361436153616361736183619364E
:103700001A360950015C0A5002580B5003580C50ED
:1037100004580D5005580E5006580F5007581050B9
:103720000858D8A096EF1BF098EF1BF0A9EF1BF0FC
:103730000950015E0A50025A0B50035A0C50045AA9
:103740000D50055A0E50065A0F50075A1050085A7D
:103750001380D89010320F320E320D320C320B32F1
:103760000A320932112E78EF1BF01250D8B4BBEF99
:103770001BF0BDEF1BF0CDEF1BF01A1E191E181E1B
:10378000171E161E151E141E136C000E1422152271
:1037900016221722182219221A2213C001F014C06F
:1037A00002F015C003F016C004F017C005F018C0F1
:1037B00006F019C007F01AC008F01200000E126ED1
:1037C00008BEE7EF1BF0E5EF1BF0F9EF1BF0081E5A
:1037D000071E061E051E041E031E021E016C000E9F
:1037E0000222032204220522062207220822010EB9
:1037F000126E10BE00EF1CF0FEEF1BF010EF1CF07D
:10380000101E0F1E0E1E0D1E0C1E0B1E0A1E096C16
:10381000000E0A220B220C220D220E220F22102251
:1038200009500A100B100C100D100E100F10101074
:10383000D8B41DEF1CF01FEF1CF067EF1CF0010E59
:10384000116E2DEF1CF0D89009360A360B360C3667
:103850000D360E360F361036112A10AE32EF1CF030
:1038600034EF1CF023EF1CF00950015C0A500258A1
:103870000B5003580C5004580D5005580E50065864
:103880000F50075810500858D8A049EF1CF04BEFC4
:103890001CF05BEF1CF00950015E0A50025A0B50FD
:1038A000035A0C50045A0D50055A0E50065A0F5028
:1038B000075A1050085AD89010320F320E320D327B
:1038C0000C320B320A320932112E34EF1CF0125036
:1038D000D8B46DEF1CF06FEF1CF07FEF1CF0081EEA
:1038E000071E061E051E041E031E021E016C000E8E
:1038F000022203220422052206220722082201C0F6
:1039000001F002C002F003C003F004C004F005C0DF
:1039100005F006C006F007C007F008C008F0120066
:10392000720ED36E000E956E97EC23F0C2EC23F06E
:10393000ABEF1CF0000E0B6E010E0C6E080E0D6E40
:10394000010E08EC23F028EC18F004EC17F0D3EC8F
:1039500015F09BEC14F00001DF51E011D8B4B3EF87
:103960001CF0B5EF1CF09AEF1CF0C2EC23F0ECEF6A
:103970001CF028EC18F004EC17F0D3EC15F09BECDD
:1039800014F0060E0001B26FD70EE82EFED7B22F4C
:10399000FCD7D9C0C7F0DAC0C8F0B30E0001A06FE1
:1039A000000EA16F2C0EA26F080EA36FC7C0A4F06B
:1039B000C8C0A5F0BFEC21F00001DF050B6EB30E0F
:1039C0000C6E000E0D6EE75108EC23F0000E026E37
:1039D000320E016E5DEC22F00001E0BFF8EF1CF04A
:1039E000E05108E1DF05D8A0F8EF1CF0FAEF1CF079
:1039F0002EEF1DF0DB51DC11D8B401EF1DF003EF09
:103A00001DF0B9EF1CF02EEF1DF028EC18F004ECBF
:103A100017F0D3EC15F09BEC14F0B30E0001A06F7F
:103A2000000EA16F130EA26F080EA36FEE0EA46F0F
:103A30007C0EA56F2B0EA66F410EA76FBFEC21F079
:103A4000000E0B6EB30E0C6E000E0D6E010E08EC28
:103A500023F0000E0001E06F010EDF6FDB05DC11CB
:103A6000D8B435EF1DF037EF1DF005EF1DF096EFE0
:103A70001CF000EF00F0033404340A6E0A50D8A49E
:103A800044EF1DF046EF1DF050EF1DF0000E016EEB
:103A9000000E026E000E036E000E046EBDEF1DF0F0
:103AA00001C005F002C006F003C007F004C008F032
:103AB000200E60EF1DF0D890083207320632053232
:103AC000E82E5BEF1DF00550096E038EFF0E011608
:103AD000FF0E0216FF0E0316000E0416960E0A5E67
:103AE0000ABE77EF1DF075EF1DF08DEF1DF00A5047
:103AF000800A970FD8B07FEF1DF081EF1DF083EFA4
:103B00001DF046EF1DF0D89004320332023201322C
:103B10000A3E83EF1DF0A5EF1DF01F0E0A6493EF20
:103B20001DF095EF1DF09DEF1DF046EF1DF0D890B4
:103B300001360236033604360A060A50D8A4A3EF2B
:103B40001DF0A5EF1DF097EF1DF00950D8B4ABEFB5
:103B50001DF0ADEF1DF0B5EF1DF0041E031E021E9B
:103B6000016C000E02220322042201C001F002C0F7
:103B700002F003C003F004C004F01200000E1A1497
:103B8000226E000E1B14236E800E1C14246E7F0EFA
:103B90001D14256E2250231024102510D8A4D3EF15
:103BA0001DF0D5EF1DF0DDEF1DF0000E1A6E000EBA
:103BB0001B6E000E1C6E000E1D6E000E1E14226E7B
:103BC000000E1F14236E800E2014246E7F0E21140D
:103BD000256E2250231024102510D8A4F2EF1DF0DA
:103BE000F4EF1DF0FCEF1DF0000E1E6E000E1F6EB8
:103BF000000E206E000E216E1DAE01EF1EF003EFD1
:103C00001EF00CEF1EF01A6C1B1ED8B01B2A1C1ED7
:103C1000D8B01C2A800E1D5621AE11EF1EF013EFF6
:103C20001EF01CEF1EF01E6C1F1ED8B01F2A201E97
:103C3000D8B0202A800E2156000E1A1A000E1B1A28
:103C4000000E1C1A800E1D1A000E1E1A000E1F1ADE
:103C5000000E201A800E211A1E501A5C1F501B588D
:103C600020501C5821501D58D8B039EF1EF03BEFA2
:103C70001EF03EEF1EF0D8903FEF1EF0D8801200ED
:103C8000CDC00BF0CEC00CF0CFC00DF0D0C00EF008
:103C900001C00BF002C00CF003C00DF004C00EF028
:103CA0000BC005F00CC006F00DC007F00EC008F008
:103CB000180E60EF1EF0D890083207320632053237
:103CC000E82E5BEF1EF00550096E0A6A09500A10D3
:103CD000D8A46DEF1EF06FEF1EF08FEF1EF0D8909E
:103CE0000B34056E0C34066E0D34076E0E34086E00
:103CF0000550061007100810D8A481EF1EF083EFBE
:103D00001EF089EF1EF0000E026E020E016EBEEF75
:103D10001EF0000E026E030E016EBEEF1EF00928AB
:103D20000A10D8A496EF1EF098EF1EF0BAEF1EF01E
:103D30000BC005F00CC006F00DC007F00EC008F077
:103D4000090ED8900536063607360836E82EA1EF5C
:103D50001EF00550061007100810D8B4B2EF1EF080
:103D6000B5EF1EF0010EB6EF1EF0000E016E026AF6
:103D7000BEEF1EF0000E026E040E016E120001C0B6
:103D800008F002C009F003C00AF004C00BF00506F9
:103D9000D8A00606052806E10628D8A4D2EF1EF012
:103DA000D4EF1EF0E1EF1EF0000E026E000E016E69
:103DB00029EF1FF0084A092A0A4A0B2A0506D8A04B
:103DC000060608C0D9FF09C0DAFFDF50D8B4EBEF10
:103DD0001EF0EDEF1EF018EF1FF00AC0F6FF0BC04B
:103DE000F7FF0800F5500009D8B4F9EF1EF0FBEF1B
:103DF0001EF018EF1FF005500610D8B402EF1FF0A8
:103E000004EF1FF018EF1FF008C0D9FF09C0DAFF58
:103E1000DF50076E0AC0F6FF0BC0F7FF0800F55031
:103E20000718D8B416EF1FF018EF1FF0DAEF1EF0E6
:103E300008C0D9FF09C0DAFFDF50076E0AC0F6FFDD
:103E40000BC0F7FF0800F550075C016E026AD8A0AE
:103E50000206120003500410D8B431EF1FF033EF04
:103E60001FF03CEF1FF003500410D8A43AEF1FF0EE
:103E70003CEF1FF041EF1FF00150C9EC23F08EEF33
:103E80001FF020EE04F00350D9260450DA22DE5051
:103E9000DE10D8B44EEF1FF050EF1FF06BEF1FF0A5
:103EA00020EE04F00350D9260450DA2210EE02F07E
:103EB0000350E1260450E222DE50E65CE650800A20
:103EC000096EDE50800A0958D8B069EF1FF06BEF19
:103ED0001FF08EEF1FF020EE02F00350D9260450A1
:103EE000DA22DECF05F0DDCF06F003C0D9FF04C033
:103EF000DAFFDECF07F0DDCF08F005500724D96EDA
:103F000006500820DA6E01C0DFFF20EE02F00350F9
:103F1000D9260450DA22DE2A000EDD22120000012A
:103F2000D7A195EF1FF097EF1FF0A1EF1FF013C07F
:103F30000AF014C00BF011C00CF012C00DF0A5EC8B
:103F400022F016BEA6EF1FF0A8EF1FF0AEEF1FF095
:103F500015C01AF016C01BF0B2EF1FF0000E1B6E5A
:103F6000000E1A6E000E196E000E186EC4EF1FF0D0
:103F7000000E026E200E016E11C003F012C004F09C
:103F80002AEC1FF0184A192A1A50185C1950800A96
:103F9000176E1B50800A1758D8A0D1EF1FF0D3EF2F
:103FA0001FF0B8EF1FF00001D7B1D9EF1FF0DBEF22
:103FB0001FF0E5EF1FF013C00AF014C00BF011C0A2
:103FC0000CF012C00DF0A5EC22F013C001F014C0EB
:103FD00002F07CEC23F01A500124116E1B500220D9
:103FE000126E1200000E066E04BEFBEF1FF0F9EF1A
:103FF0001FF001EF20F0036C041ED8B0042A010E5C
:10400000066E02BE08EF20F006EF20F00EEF20F063
:10401000016C021ED8B0022A010E061A000E086EAC
:10402000000E076E03500410D8B419EF20F01BEFF8
:1040300020F043EF20F0010E056E23EF20F0D89022
:1040400003360436052A04AE28EF20F02AEF20F0CC
:104050001FEF20F0D890073608360350015C04505B
:104060000258D8A036EF20F038EF20F03DEF20F0D6
:104070000350015E0450025A0780D8900432033284
:10408000052E2AEF20F00650D8B449EF20F04BEF70
:1040900020F04FEF20F0076C081ED8B0082A07C0A8
:1040A00001F008C002F01200000E066E02BE5DEFC5
:1040B00020F05BEF20F063EF20F0016C021ED8B01F
:1040C000022A010E066E04BE6AEF20F068EF20F0AF
:1040D0006EEF20F0036C041ED8B0042A03500410C5
:1040E000D8B475EF20F077EF20F09BEF20F0010EB1
:1040F000056E7FEF20F0D89003360436052A04AE13
:1041000084EF20F086EF20F07BEF20F00350015C7D
:1041100004500258D8A08FEF20F091EF20F095EFD7
:1041200020F00350015E0450025AD890043203324A
:10413000052E86EF20F00650D8B4A1EF20F0A3EFB3
:1041400020F0A7EF20F0016C021ED8B0022A01C0B7
:1041500001F002C002F01200000E0114096E000E00
:1041600002140A6E800E03140B6E7F0E04140C6E84
:1041700009500A100B100C10D8A4C1EF20F0C3EFA7
:1041800020F0CBEF20F0000E016E000E026E000E4C
:10419000036E000E046E000E0514096E000E061468
:1041A0000A6E800E07140B6E7F0E08140C6E0950F9
:1041B0000A100B100C10D8A4E0EF20F0E2EF20F072
:1041C000EAEF20F0000E056E000E066E000E076E80
:1041D000000E086E055001180FE1065002180CE1A0
:1041E0000750031809E108500418D8B4FAEF20F07A
:1041F000FCEF20F0FFEF20F0D89000EF21F0D88006
:1042000012009AC09EF09BC09FF0000E0001D26F7A
:10421000000ED16F1FEF21F098C040F099C041F01F
:104220009E0E426E000E436E9CC044F09DC045F051
:10423000F0EC09F040500001D1274150D2239EC03C
:10424000F6FF9FC0F7FF0800F5500009D8A42BEF38
:1042500021F02DEF21F00CEF21F0D1C098F0D2C069
:1042600099F01200BF0E096EFF0E0A6E07C00BF028
:1042700008C00CF009500B260A500C220C500AE121
:104280001A0E0B5CD8A047EF21F04AEF21F0010E87
:104290004BEF21F0000E0D6E0E6A0D500E10D8B4CB
:1042A00054EF21F056EF21F05DEF21F0200E0710C2
:1042B000076E0850086E61EF21F007C007F008C0D4
:1042C00008F0120078EF21F009C0F6FF0AC0F7FFEE
:1042D000F86A070EF76403D00800F55005D0F6CF52
:1042E000E1FFF7CFE2FFE75011EC22F0094A0A2A7A
:1042F00009C0F6FF0AC0F7FFF86A070EF76403D09B
:104300000800F55005D0F6CFE1FFF7CFE2FFE75008
:104310000009D8A48EEF21F090EF21F064EF21F096
:10432000120003C007F004C008F001C009F002C089
:104330000AF00750056E0850066E074A082A05C0A5
:10434000F6FF06C0F7FFF86A09C0D9FF0AC0DAFF16
:10435000094A0A2A070EF76403D00800F55005D071
:10436000F6CFE1FFF7CFE2FFE750DF6EDF50D8A4D2
:10437000BCEF21F0BEEF21F099EF21F01200A40E66
:104380000001AA6F000EAB6FA0C0ACF0A1C0ADF0F1
:10439000000EAF6F000EAE6F000EB16F000EB06F6B
:1043A000AC0E986F000E996FA2C09AF0A3C09BF05C
:1043B000AA0E9C6F000E9D6F01EC21F00001AE5122
:1043C000A025D96EAF51A121DA6E000EDF6E12006A
:1043D000010E076E200E01180210D8B4F2EF21F082
:1043E000F4EF21F00DEF22F0F70E036EFF0E046ED6
:1043F00001C005F002C006F0035005260450062255
:10440000065009E1050E055CD8A009EF22F00BEF7C
:1044100022F00DEF22F0000E076E07C001F0026AD5
:104420001200086E08C007F0F00E07168C500F0B34
:1044300007108C6E8C848C8600F08C96000E026EB9
:10444000010E016E5DEC22F008C007F0073AF00E95
:1044500007168C500F0B07108C6E8C8600F08C9614
:10446000000E026E030E016E5DEC22F01200086E6B
:1044700008C007F0F00E07168C500F0B07108C6E5B
:104480008C948C8600F08C96000E026E010E016EEC
:104490005DEC22F008C007F0073AF00E07168C50CA
:1044A0000F0B07108C6E8C8600F08C96000E026E3F
:1044B000030E016E5DEC22F01200000E046E000E81
:1044C000036E76EF22F0000E066E000E056E054AB2
:1044D000062A065009E1A50E055CD8A072EF22F06D
:1044E00074EF22F067EF22F0034A042A0150035CC4
:1044F00002500458D8A07FEF22F081EF22F063EF42
:1045000022F01200000E1E1A000E1F1A000E201AB2
:10451000800E211A1AC001F01BC002F01CC003F06B
:104520001DC004F01EC005F01FC006F020C007F03B
:1045300021C008F0E7EC0CF001C01AF002C01BF03B
:1045400003C01CF004C01DF01200000E106E000E1F
:104550000F6EB6EF22F00EC001F0026A0CC003F03D
:104560000DC004F02AEC1FF00F4A102A0F500A2445
:10457000D96E10500B20DA6EDF500E6E0E50D8A49C
:10458000C4EF22F0C6EF22F0ABEF22F012008C0E47
:10459000F66E470EF76E000EF86E00EEE3F010EECA
:1045A00006F00900F5CFEEFFE550E150FAE101EE2B
:1045B00000F0500EEE6AE806FDE100EEC9F01A0EBA
:1045C000EE6AE806FDE1000EF86E000190EF1CF0C7
:1045D00014BEF5EF22F0145006E11304D8B0F3EF47
:1045E00022F0F5EF22F003EF23F013C015F014C012
:1045F00016F0151E161E154A162A15C013F016C001
:1046000014F007EF23F013C013F014C014F01200DD
:104610000E6E020E0E600FEF23F011EF23F01AEF73
:1046200023F00B500F0B80090F6E0F5037EC22F068
:1046300021EF23F00B500F0BC0090F6E0F5037EC1A
:1046400022F00CC009F00DC00AF062EC21F012005B
:10465000BF0E036EFF0E046E01C005F002C006F02F
:10466000035005260450062206500AE11A0E055C86
:10467000D8A03DEF23F040EF23F0010E41EF23F0EF
:10468000000E016E026A12000150021003100410A5
:10469000D8B44DEF23F04FEF23F057EF23F0000E87
:1046A000011A000E021A000E031A800E041A01C02D
:1046B00001F002C002F003C003F004C004F01200D5
:1046C000D00E036EFF0E046E01C005F002C006F0AE
:1046D000035005260450062206500AE10A0E055C26
:1046E000D8A075EF23F078EF23F0010E79EF23F0D7
:1046F000000E016E026A120001C003F002C004F055
:1047000084EF23F0014A022A01C0D9FF02C0DAFF78
:10471000DF50D8A48EEF23F090EF23F082EF23F048
:104720000350015C016E04500258026E1200000E2C
:10473000956E000E026E0F0E016E5DEC22F0020E01
:1047400037EC22F0280E37EC22F0010E37EC22F085
:104750000C0E37EC22F0060E37EC22F0120001505E
:104760000302F3CF05F0F4CF06F001500402F3503A
:10477000062602500302F350062605C001F006C0CB
:1047800002F01200010E37EC22F01200EE7C2B41F9
:044790000100120012
:020000040020DA
:08000000FFFFFFFFFFFFFFFF00
:020000040030CA
:0E00000000091F1EFF0181FF0FC00FE00F401F
:00000001FF
